{"abi":[{"type":"constructor","inputs":[{"name":"initialOwner","type":"address","internalType":"address"}],"stateMutability":"nonpayable"},{"type":"function","name":"approve","inputs":[{"name":"to","type":"address","internalType":"address"},{"name":"tokenId","type":"uint256","internalType":"uint256"}],"outputs":[],"stateMutability":"nonpayable"},{"type":"function","name":"balanceOf","inputs":[{"name":"owner","type":"address","internalType":"address"}],"outputs":[{"name":"","type":"uint256","internalType":"uint256"}],"stateMutability":"view"},{"type":"function","name":"getApproved","inputs":[{"name":"tokenId","type":"uint256","internalType":"uint256"}],"outputs":[{"name":"","type":"address","internalType":"address"}],"stateMutability":"view"},{"type":"function","name":"isApprovedForAll","inputs":[{"name":"owner","type":"address","internalType":"address"},{"name":"operator","type":"address","internalType":"address"}],"outputs":[{"name":"","type":"bool","internalType":"bool"}],"stateMutability":"view"},{"type":"function","name":"mint","inputs":[{"name":"to","type":"address","internalType":"address"},{"name":"tokenURI","type":"string","internalType":"string"}],"outputs":[],"stateMutability":"nonpayable"},{"type":"function","name":"name","inputs":[],"outputs":[{"name":"","type":"string","internalType":"string"}],"stateMutability":"view"},{"type":"function","name":"nextTokenId","inputs":[],"outputs":[{"name":"","type":"uint256","internalType":"uint256"}],"stateMutability":"view"},{"type":"function","name":"owner","inputs":[],"outputs":[{"name":"","type":"address","internalType":"address"}],"stateMutability":"view"},{"type":"function","name":"ownerOf","inputs":[{"name":"tokenId","type":"uint256","internalType":"uint256"}],"outputs":[{"name":"","type":"address","internalType":"address"}],"stateMutability":"view"},{"type":"function","name":"renounceOwnership","inputs":[],"outputs":[],"stateMutability":"nonpayable"},{"type":"function","name":"royaltyInfo","inputs":[{"name":"tokenId","type":"uint256","internalType":"uint256"},{"name":"salePrice","type":"uint256","internalType":"uint256"}],"outputs":[{"name":"","type":"address","internalType":"address"},{"name":"","type":"uint256","internalType":"uint256"}],"stateMutability":"view"},{"type":"function","name":"safeTransferFrom","inputs":[{"name":"from","type":"address","internalType":"address"},{"name":"to","type":"address","internalType":"address"},{"name":"tokenId","type":"uint256","internalType":"uint256"}],"outputs":[],"stateMutability":"nonpayable"},{"type":"function","name":"safeTransferFrom","inputs":[{"name":"from","type":"address","internalType":"address"},{"name":"to","type":"address","internalType":"address"},{"name":"tokenId","type":"uint256","internalType":"uint256"},{"name":"data","type":"bytes","internalType":"bytes"}],"outputs":[],"stateMutability":"nonpayable"},{"type":"function","name":"setApprovalForAll","inputs":[{"name":"operator","type":"address","internalType":"address"},{"name":"approved","type":"bool","internalType":"bool"}],"outputs":[],"stateMutability":"nonpayable"},{"type":"function","name":"setRoyaltyInfo","inputs":[{"name":"receiver","type":"address","internalType":"address"},{"name":"feeNumerator","type":"uint96","internalType":"uint96"}],"outputs":[],"stateMutability":"nonpayable"},{"type":"function","name":"supportsInterface","inputs":[{"name":"interfaceId","type":"bytes4","internalType":"bytes4"}],"outputs":[{"name":"","type":"bool","internalType":"bool"}],"stateMutability":"view"},{"type":"function","name":"symbol","inputs":[],"outputs":[{"name":"","type":"string","internalType":"string"}],"stateMutability":"view"},{"type":"function","name":"tokenURI","inputs":[{"name":"tokenId","type":"uint256","internalType":"uint256"}],"outputs":[{"name":"","type":"string","internalType":"string"}],"stateMutability":"view"},{"type":"function","name":"transferFrom","inputs":[{"name":"from","type":"address","internalType":"address"},{"name":"to","type":"address","internalType":"address"},{"name":"tokenId","type":"uint256","internalType":"uint256"}],"outputs":[],"stateMutability":"nonpayable"},{"type":"function","name":"transferOwnership","inputs":[{"name":"newOwner","type":"address","internalType":"address"}],"outputs":[],"stateMutability":"nonpayable"},{"type":"event","name":"Approval","inputs":[{"name":"owner","type":"address","indexed":true,"internalType":"address"},{"name":"approved","type":"address","indexed":true,"internalType":"address"},{"name":"tokenId","type":"uint256","indexed":true,"internalType":"uint256"}],"anonymous":false},{"type":"event","name":"ApprovalForAll","inputs":[{"name":"owner","type":"address","indexed":true,"internalType":"address"},{"name":"operator","type":"address","indexed":true,"internalType":"address"},{"name":"approved","type":"bool","indexed":false,"internalType":"bool"}],"anonymous":false},{"type":"event","name":"BatchMetadataUpdate","inputs":[{"name":"_fromTokenId","type":"uint256","indexed":false,"internalType":"uint256"},{"name":"_toTokenId","type":"uint256","indexed":false,"internalType":"uint256"}],"anonymous":false},{"type":"event","name":"MetadataUpdate","inputs":[{"name":"_tokenId","type":"uint256","indexed":false,"internalType":"uint256"}],"anonymous":false},{"type":"event","name":"OwnershipTransferred","inputs":[{"name":"previousOwner","type":"address","indexed":true,"internalType":"address"},{"name":"newOwner","type":"address","indexed":true,"internalType":"address"}],"anonymous":false},{"type":"event","name":"Transfer","inputs":[{"name":"from","type":"address","indexed":true,"internalType":"address"},{"name":"to","type":"address","indexed":true,"internalType":"address"},{"name":"tokenId","type":"uint256","indexed":true,"internalType":"uint256"}],"anonymous":false},{"type":"error","name":"ERC2981InvalidDefaultRoyalty","inputs":[{"name":"numerator","type":"uint256","internalType":"uint256"},{"name":"denominator","type":"uint256","internalType":"uint256"}]},{"type":"error","name":"ERC2981InvalidDefaultRoyaltyReceiver","inputs":[{"name":"receiver","type":"address","internalType":"address"}]},{"type":"error","name":"ERC2981InvalidTokenRoyalty","inputs":[{"name":"tokenId","type":"uint256","internalType":"uint256"},{"name":"numerator","type":"uint256","internalType":"uint256"},{"name":"denominator","type":"uint256","internalType":"uint256"}]},{"type":"error","name":"ERC2981InvalidTokenRoyaltyReceiver","inputs":[{"name":"tokenId","type":"uint256","internalType":"uint256"},{"name":"receiver","type":"address","internalType":"address"}]},{"type":"error","name":"ERC721IncorrectOwner","inputs":[{"name":"sender","type":"address","internalType":"address"},{"name":"tokenId","type":"uint256","internalType":"uint256"},{"name":"owner","type":"address","internalType":"address"}]},{"type":"error","name":"ERC721InsufficientApproval","inputs":[{"name":"operator","type":"address","internalType":"address"},{"name":"tokenId","type":"uint256","internalType":"uint256"}]},{"type":"error","name":"ERC721InvalidApprover","inputs":[{"name":"approver","type":"address","internalType":"address"}]},{"type":"error","name":"ERC721InvalidOperator","inputs":[{"name":"operator","type":"address","internalType":"address"}]},{"type":"error","name":"ERC721InvalidOwner","inputs":[{"name":"owner","type":"address","internalType":"address"}]},{"type":"error","name":"ERC721InvalidReceiver","inputs":[{"name":"receiver","type":"address","internalType":"address"}]},{"type":"error","name":"ERC721InvalidSender","inputs":[{"name":"sender","type":"address","internalType":"address"}]},{"type":"error","name":"ERC721NonexistentToken","inputs":[{"name":"tokenId","type":"uint256","internalType":"uint256"}]},{"type":"error","name":"OwnableInvalidOwner","inputs":[{"name":"owner","type":"address","internalType":"address"}]},{"type":"error","name":"OwnableUnauthorizedAccount","inputs":[{"name":"account","type":"address","internalType":"address"}]}],"bytecode":{"object":"0x60806040523480156200001157600080fd5b50604051620019a6380380620019a683398101604081905262000034916200012b565b806040518060400160405280600a815260200169149d5b90db1d5893919560b21b815250604051806040016040528060038152602001622921a760e91b815250816000908162000085919062000204565b50600162000094828262000204565b5050506001600160a01b038116620000c657604051631e4fbdf760e01b81526000600482015260240160405180910390fd5b620000d181620000d9565b5050620002d0565b600980546001600160a01b038381166001600160a01b0319831681179093556040519116919082907f8be0079c531659141344cd1fd0a4f28419497f9722a3daafe3b4186f6b6457e090600090a35050565b6000602082840312156200013e57600080fd5b81516001600160a01b03811681146200015657600080fd5b9392505050565b634e487b7160e01b600052604160045260246000fd5b600181811c908216806200018857607f821691505b602082108103620001a957634e487b7160e01b600052602260045260246000fd5b50919050565b601f821115620001ff576000816000526020600020601f850160051c81016020861015620001da5750805b601f850160051c820191505b81811015620001fb57828155600101620001e6565b5050505b505050565b81516001600160401b038111156200022057620002206200015d565b620002388162000231845462000173565b84620001af565b602080601f831160018114620002705760008415620002575750858301515b600019600386901b1c1916600185901b178555620001fb565b600085815260208120601f198616915b82811015620002a15788860151825594840194600190910190840162000280565b5085821015620002c05787850151600019600388901b60f8161c191681555b5050505050600190811b01905550565b6116c680620002e06000396000f3fe608060405234801561001057600080fd5b506004361061012c5760003560e01c8063715018a6116100ad578063b88d4fde11610071578063b88d4fde1461028a578063c87b56dd1461029d578063d0def521146102b0578063e985e9c5146102c3578063f2fde38b146102d657600080fd5b8063715018a61461024d57806375794a3c146102555780638da5cb5b1461025e57806395d89b411461026f578063a22cb4651461027757600080fd5b806323b872dd116100f457806323b872dd146101c15780632a55205a146101d457806342842e0e146102065780636352211e1461021957806370a082311461022c57600080fd5b806301ffc9a71461013157806302fa7c471461015957806306fdde031461016e578063081812fc14610183578063095ea7b3146101ae575b600080fd5b61014461013f3660046110ec565b6102e9565b60405190151581526020015b60405180910390f35b61016c610167366004611125565b6102fa565b005b610176610310565b60405161015091906111b8565b6101966101913660046111cb565b6103a2565b6040516001600160a01b039091168152602001610150565b61016c6101bc3660046111e4565b6103cb565b61016c6101cf36600461120e565b6103d6565b6101e76101e236600461124a565b610466565b604080516001600160a01b039093168352602083019190915201610150565b61016c61021436600461120e565b610512565b6101966102273660046111cb565b610532565b61023f61023a36600461126c565b61053d565b604051908152602001610150565b61016c610585565b61023f600a5481565b6009546001600160a01b0316610196565b610176610599565b61016c610285366004611287565b6105a8565b61016c610298366004611344565b6105b3565b6101766102ab3660046111cb565b6105ca565b61016c6102be3660046113c0565b6106db565b6101446102d1366004611422565b610714565b61016c6102e436600461126c565b610742565b60006102f482610780565b92915050565b6103026107a5565b61030c82826107d2565b5050565b60606000805461031f90611455565b80601f016020809104026020016040519081016040528092919081815260200182805461034b90611455565b80156103985780601f1061036d57610100808354040283529160200191610398565b820191906000526020600020905b81548152906001019060200180831161037b57829003601f168201915b5050505050905090565b60006103ad82610875565b506000828152600460205260409020546001600160a01b03166102f4565b61030c8282336108ae565b6001600160a01b03821661040557604051633250574960e11b8152600060048201526024015b60405180910390fd5b60006104128383336108bb565b9050836001600160a01b0316816001600160a01b031614610460576040516364283d7b60e01b81526001600160a01b03808616600483015260248201849052821660448201526064016103fc565b50505050565b60008281526008602090815260408083208151808301909252546001600160a01b038116808352600160a01b9091046001600160601b03169282019290925282916104db5750604080518082019091526007546001600160a01b0381168252600160a01b90046001600160601b031660208201525b6020810151600090612710906104fa906001600160601b0316876114a5565b61050491906114bc565b915196919550909350505050565b61052d838383604051806020016040528060008152506105b3565b505050565b60006102f482610875565b60006001600160a01b038216610569576040516322718ad960e21b8152600060048201526024016103fc565b506001600160a01b031660009081526003602052604090205490565b61058d6107a5565b61059760006109b4565b565b60606001805461031f90611455565b61030c338383610a06565b6105be8484846103d6565b61046084848484610aa5565b60606105d582610875565b50600082815260066020526040812080546105ef90611455565b80601f016020809104026020016040519081016040528092919081815260200182805461061b90611455565b80156106685780601f1061063d57610100808354040283529160200191610668565b820191906000526020600020905b81548152906001019060200180831161064b57829003601f168201915b50505050509050600061068660408051602081019091526000815290565b90508051600003610698575092915050565b8151156106ca5780826040516020016106b29291906114de565b60405160208183030381529060405292505050919050565b6106d384610bce565b949350505050565b6106e36107a5565b6106ef82600a54610c43565b6106fb600a5482610c5d565b600a805490600061070b8361150d565b91905055505050565b6001600160a01b03918216600090815260056020908152604080832093909416825291909152205460ff1690565b61074a6107a5565b6001600160a01b03811661077457604051631e4fbdf760e01b8152600060048201526024016103fc565b61077d816109b4565b50565b60006001600160e01b0319821663152a902d60e11b14806102f457506102f482610cad565b6009546001600160a01b031633146105975760405163118cdaa760e01b81523360048201526024016103fc565b6127106001600160601b03821681101561081157604051636f483d0960e01b81526001600160601b0383166004820152602481018290526044016103fc565b6001600160a01b03831661083b57604051635b6cc80560e11b8152600060048201526024016103fc565b50604080518082019091526001600160a01b039092168083526001600160601b039091166020909201829052600160a01b90910217600755565b6000818152600260205260408120546001600160a01b0316806102f457604051637e27328960e01b8152600481018490526024016103fc565b61052d8383836001610cd2565b6000828152600260205260408120546001600160a01b03908116908316156108e8576108e8818486610dd8565b6001600160a01b0381161561092657610905600085600080610cd2565b6001600160a01b038116600090815260036020526040902080546000190190555b6001600160a01b03851615610955576001600160a01b0385166000908152600360205260409020805460010190555b60008481526002602052604080822080546001600160a01b0319166001600160a01b0389811691821790925591518793918516917fddf252ad1be2c89b69c2b068fc378daa952ba7f163c4a11628f55a4df523b3ef91a4949350505050565b600980546001600160a01b038381166001600160a01b0319831681179093556040519116919082907f8be0079c531659141344cd1fd0a4f28419497f9722a3daafe3b4186f6b6457e090600090a35050565b6001600160a01b038216610a3857604051630b61174360e31b81526001600160a01b03831660048201526024016103fc565b6001600160a01b03838116600081815260056020908152604080832094871680845294825291829020805460ff191686151590811790915591519182527f17307eab39ab6107e8899845ad3d59bd9653f200f220920489ca2b5937696c31910160405180910390a3505050565b6001600160a01b0383163b1561046057604051630a85bd0160e11b81526001600160a01b0384169063150b7a0290610ae7903390889087908790600401611526565b6020604051808303816000875af1925050508015610b22575060408051601f3d908101601f19168201909252610b1f91810190611563565b60015b610b8b573d808015610b50576040519150601f19603f3d011682016040523d82523d6000602084013e610b55565b606091505b508051600003610b8357604051633250574960e11b81526001600160a01b03851660048201526024016103fc565b805181602001fd5b6001600160e01b03198116630a85bd0160e11b14610bc757604051633250574960e11b81526001600160a01b03851660048201526024016103fc565b5050505050565b6060610bd982610875565b506000610bf160408051602081019091526000815290565b90506000815111610c115760405180602001604052806000815250610c3c565b80610c1b84610e3c565b604051602001610c2c9291906114de565b6040516020818303038152906040525b9392505050565b61030c828260405180602001604052806000815250610ecf565b6000828152600660205260409020610c7582826115d0565b506040518281527ff8e1a15aba9398e019f0b49df1a4fde98ee17ae345cb5f6b5e2c27f5033e8ce79060200160405180910390a15050565b60006001600160e01b03198216632483248360e11b14806102f457506102f482610ee6565b8080610ce657506001600160a01b03821615155b15610da8576000610cf684610875565b90506001600160a01b03831615801590610d225750826001600160a01b0316816001600160a01b031614155b8015610d355750610d338184610714565b155b15610d5e5760405163a9fbf51f60e01b81526001600160a01b03841660048201526024016103fc565b8115610da65783856001600160a01b0316826001600160a01b03167f8c5be1e5ebec7d5bd14f71427d1e84f3dd0314c0f7b2291e5b200ac8c7c3b92560405160405180910390a45b505b5050600090815260046020526040902080546001600160a01b0319166001600160a01b0392909216919091179055565b610de3838383610f36565b61052d576001600160a01b038316610e1157604051637e27328960e01b8152600481018290526024016103fc565b60405163177e802f60e01b81526001600160a01b0383166004820152602481018290526044016103fc565b60606000610e4983610f99565b600101905060008167ffffffffffffffff811115610e6957610e696112b8565b6040519080825280601f01601f191660200182016040528015610e93576020820181803683370190505b5090508181016020015b600019016f181899199a1a9b1b9c1cb0b131b232b360811b600a86061a8153600a8504945084610e9d57509392505050565b610ed98383611071565b61052d6000848484610aa5565b60006001600160e01b031982166380ac58cd60e01b1480610f1757506001600160e01b03198216635b5e139f60e01b145b806102f457506301ffc9a760e01b6001600160e01b03198316146102f4565b60006001600160a01b038316158015906106d35750826001600160a01b0316846001600160a01b03161480610f705750610f708484610714565b806106d35750506000908152600460205260409020546001600160a01b03908116911614919050565b60008072184f03e93ff9f4daa797ed6e38ed64bf6a1f0160401b8310610fd85772184f03e93ff9f4daa797ed6e38ed64bf6a1f0160401b830492506040015b6d04ee2d6d415b85acef81000000008310611004576d04ee2d6d415b85acef8100000000830492506020015b662386f26fc10000831061102257662386f26fc10000830492506010015b6305f5e100831061103a576305f5e100830492506008015b612710831061104e57612710830492506004015b60648310611060576064830492506002015b600a83106102f45760010192915050565b6001600160a01b03821661109b57604051633250574960e11b8152600060048201526024016103fc565b60006110a9838360006108bb565b90506001600160a01b0381161561052d576040516339e3563760e11b8152600060048201526024016103fc565b6001600160e01b03198116811461077d57600080fd5b6000602082840312156110fe57600080fd5b8135610c3c816110d6565b80356001600160a01b038116811461112057600080fd5b919050565b6000806040838503121561113857600080fd5b61114183611109565b915060208301356001600160601b038116811461115d57600080fd5b809150509250929050565b60005b8381101561118357818101518382015260200161116b565b50506000910152565b600081518084526111a4816020860160208601611168565b601f01601f19169290920160200192915050565b602081526000610c3c602083018461118c565b6000602082840312156111dd57600080fd5b5035919050565b600080604083850312156111f757600080fd5b61120083611109565b946020939093013593505050565b60008060006060848603121561122357600080fd5b61122c84611109565b925061123a60208501611109565b9150604084013590509250925092565b6000806040838503121561125d57600080fd5b50508035926020909101359150565b60006020828403121561127e57600080fd5b610c3c82611109565b6000806040838503121561129a57600080fd5b6112a383611109565b91506020830135801515811461115d57600080fd5b634e487b7160e01b600052604160045260246000fd5b600067ffffffffffffffff808411156112e9576112e96112b8565b604051601f8501601f19908116603f01168101908282118183101715611311576113116112b8565b8160405280935085815286868601111561132a57600080fd5b858560208301376000602087830101525050509392505050565b6000806000806080858703121561135a57600080fd5b61136385611109565b935061137160208601611109565b925060408501359150606085013567ffffffffffffffff81111561139457600080fd5b8501601f810187136113a557600080fd5b6113b4878235602084016112ce565b91505092959194509250565b600080604083850312156113d357600080fd5b6113dc83611109565b9150602083013567ffffffffffffffff8111156113f857600080fd5b8301601f8101851361140957600080fd5b611418858235602084016112ce565b9150509250929050565b6000806040838503121561143557600080fd5b61143e83611109565b915061144c60208401611109565b90509250929050565b600181811c9082168061146957607f821691505b60208210810361148957634e487b7160e01b600052602260045260246000fd5b50919050565b634e487b7160e01b600052601160045260246000fd5b80820281158282048414176102f4576102f461148f565b6000826114d957634e487b7160e01b600052601260045260246000fd5b500490565b600083516114f0818460208801611168565b835190830190611504818360208801611168565b01949350505050565b60006001820161151f5761151f61148f565b5060010190565b6001600160a01b03858116825284166020820152604081018390526080606082018190526000906115599083018461118c565b9695505050505050565b60006020828403121561157557600080fd5b8151610c3c816110d6565b601f82111561052d576000816000526020600020601f850160051c810160208610156115a95750805b601f850160051c820191505b818110156115c8578281556001016115b5565b505050505050565b815167ffffffffffffffff8111156115ea576115ea6112b8565b6115fe816115f88454611455565b84611580565b602080601f831160018114611633576000841561161b5750858301515b600019600386901b1c1916600185901b1785556115c8565b600085815260208120601f198616915b8281101561166257888601518255948401946001909101908401611643565b50858210156116805787850151600019600388901b60f8161c191681555b5050505050600190811b0190555056fea26469706673582212203de7f735bd0d0119d1bcefd26e56c95d4d9f5dec702b00b40a908e88b1100cf064736f6c63430008170033","linkReferences":{}},"methodIdentifiers":{"approve(address,uint256)":"095ea7b3","balanceOf(address)":"70a08231","getApproved(uint256)":"081812fc","isApprovedForAll(address,address)":"e985e9c5","mint(address,string)":"d0def521","name()":"06fdde03","nextTokenId()":"75794a3c","owner()":"8da5cb5b","ownerOf(uint256)":"6352211e","renounceOwnership()":"715018a6","royaltyInfo(uint256,uint256)":"2a55205a","safeTransferFrom(address,address,uint256)":"42842e0e","safeTransferFrom(address,address,uint256,bytes)":"b88d4fde","setApprovalForAll(address,bool)":"a22cb465","setRoyaltyInfo(address,uint96)":"02fa7c47","supportsInterface(bytes4)":"01ffc9a7","symbol()":"95d89b41","tokenURI(uint256)":"c87b56dd","transferFrom(address,address,uint256)":"23b872dd","transferOwnership(address)":"f2fde38b"},"id":44}